{
  "contractName": "Quiz",
  "abi": [
    {
      "constant": true,
      "inputs": [],
      "name": "userCount",
      "outputs": [
        {
          "name": "",
          "type": "uint256"
        }
      ],
      "payable": false,
      "stateMutability": "view",
      "type": "function"
    },
    {
      "inputs": [],
      "payable": false,
      "stateMutability": "nonpayable",
      "type": "constructor"
    },
    {
      "constant": true,
      "inputs": [
        {
          "name": "id",
          "type": "uint256"
        }
      ],
      "name": "getResult",
      "outputs": [
        {
          "name": "result",
          "type": "uint256"
        },
        {
          "name": "enrolled",
          "type": "bool"
        }
      ],
      "payable": false,
      "stateMutability": "view",
      "type": "function"
    },
    {
      "constant": false,
      "inputs": [
        {
          "name": "id",
          "type": "uint256"
        },
        {
          "name": "newResult",
          "type": "uint256"
        }
      ],
      "name": "addTestResult",
      "outputs": [
        {
          "name": "",
          "type": "uint8"
        }
      ],
      "payable": false,
      "stateMutability": "nonpayable",
      "type": "function"
    }
  ],
  "bytecode": "0x6080604052600060025534801561001557600080fd5b50336000806101000a81548173ffffffffffffffffffffffffffffffffffffffff021916908373ffffffffffffffffffffffffffffffffffffffff16021790555061031e806100656000396000f300608060405260043610610057576000357c0100000000000000000000000000000000000000000000000000000000900463ffffffff16806307973ccf1461005c578063995e433914610087578063df7af6dd146100d3575b600080fd5b34801561006857600080fd5b50610071610124565b6040518082815260200191505060405180910390f35b34801561009357600080fd5b506100b26004803603810190808035906020019092919050505061012a565b60405180838152602001821515151581526020019250505060405180910390f35b3480156100df57600080fd5b506101086004803603810190808035906020019092919080359060200190929190505050610171565b604051808260ff1660ff16815260200191505060405180910390f35b60025481565b60008060016000848152602001908152602001600020600101546001600085815260200190815260200160002060020160009054906101000a900460ff1691509150915091565b600061017b6102ce565b3373ffffffffffffffffffffffffffffffffffffffff166000809054906101000a900473ffffffffffffffffffffffffffffffffffffffff1673ffffffffffffffffffffffffffffffffffffffff1614156102c7576001600085815260200190815260200160002060020160009054906101000a900460ff161561024457826001600086815260200190815260200160002060010154101561023b57826001600086815260200190815260200160002060010181905550600191506102c6565b600291506102c6565b6060604051908101604052808581526020018481526020016001151581525090508060016000868152602001908152602001600020600082015181600001556020820151816001015560408201518160020160006101000a81548160ff0219169083151502179055509050506001600260008282540192505081905550600091505b5b5092915050565b606060405190810160405280600081526020016000815260200160001515815250905600a165627a7a72305820b718305a12302e5b265e1b9af73876b2110418c711dbe57b1176c428a8e578460029",
  "source": "pragma solidity ^0.4.24;\n\ncontract Quiz {\n    address owner;\n    struct userInfo {\n        uint256 id;\n        uint256 result;\n        bool enrolled;\n    }\n    mapping(uint256 => userInfo) testResult;\n    uint256 public userCount = 0;\n\n    modifier onlyowner(){\n        if(owner==msg.sender) _;\n    }\n    constructor() public {\n        owner = msg.sender;\n    }\n    \n    function getResult(uint256 id) public view returns(uint256 result, bool enrolled){\n        return(testResult[id].result,testResult[id].enrolled);\n    }\n\n    function addTestResult(uint256 id, uint256 newResult) public onlyowner returns(uint8){\n        if(testResult[id].enrolled){\n            if(testResult[id].result < newResult){\n                testResult[id].result = newResult;\n                return 1;\n            }\n            else{\n                return 2;\n            }\n        }\n        else{\n            userInfo memory newUser = userInfo(id,newResult,true);\n            testResult[id] = newUser;\n            userCount += 1;\n            return 0;\n        }\n    }\n}",
  "sourcePath": "/home/celebal/personal/test/quiz_blockchain/backend/contracts/Quiz.sol",
  "compiler": {
    "name": "solc",
    "version": "0.4.24+commit.e67f0147.Emscripten.clang"
  },
  "schemaVersion": "2.0.1",
  "updatedAt": "2018-10-23T07:30:49.566Z"
}